:020000040000FA
:0400000080313528EE
:100008007E1480312E000F1C0A280B283328230069
:100018001012101B102811281528901F14281528B5
:100028001D280C08F0007008F80010139013101623
:1000380031288F1A2028212831280F1D2428252807
:1000480031280C08F0007008F8000F10DB308C0025
:1000580010160F18302831282D282E000F107E106A
:10006800090080313728F501F601F701F8017E1003
:10007800200080313F288131112180317508031D0E
:10008800462847287D288131062180318131322157
:100098008031CE308031EC208031BC308031EC2092
:1000A800803181312C218031813132218031CF3032
:1000B8008031EC20803100308031B8208031F4006C
:1000C8007408F60081312C2180315A307606031DE0
:1000D8006E286F28732820000C15F501F50A2300F7
:1000E8008F1D772878287A2820000C1620000C12FB
:1000F80086287503031D8128822886287608803182
:10010800D520803186288031352820009601970136
:1001180098019101FF309200FF309300E7303E00D4
:10012800CE00FF30C300B801E501C401B901CF0119
:10013800BA01C501D001FF30BB00FF30C600FF3057
:10014800D100BC01FF30C700FF30D2000830E80002
:1001580013303D00C50014303E00A3001530A40044
:1001680014303D00C6000800F2008031FA208031CA
:10017800230091158031FA20803123000C08F1000A
:100188007108F3008031FA20803172080319CD28F4
:10019800D02823009116D228230091121116730833
:1001A8000800F100C03023008F0071358D00FF304A
:1001B8008E002630900001309100920112168C01B9
:1001C8008B170B172E000F108F1019149914080095
:1001D800F1008031FA208031710823008C002E0054
:1001E8000F1CF728F828F3280F10080023000F1910
:1001F800FE28FF28FA2811081F39031D042905299C
:10020800FA28080028302300900091018F170F1753
:1002180006308D00FF308E000800813124218131A5
:1002280080318920813181311B2181310800603082
:1002380031008D008F019101023093009201080076
:100248002F0096019701980199019A019B010800D6
:100258008031FA2081312300111508008031FA20FD
:0802680081312300111408008C
:00000001FF
