:020000040000FA
:0400000080313528EE
:100008007E1480312E000F1C0A280B283328230069
:100018001012101B102811281528901F14281528B5
:100028001D280C08F0007008F80010139013101623
:1000380031288F1A2028212831280F1D2428252807
:1000480031280C08F0007008F8000F10DB308C0025
:1000580010160F18302831282D282E000F107E106A
:10006800090080313728F501F601F701F8017E1003
:10007800200080313F288131022180318031F720F2
:100088008031813123218031CE308031DD208031B3
:10009800BC308031DD20803181311D2180318131BA
:1000A80023218031CF308031DD2080310030803114
:1000B800A9208031F4007408F60081311D218031B7
:1000C8005A307606031D69286A28422871282000BC
:1000D8000C1576088031C62080315A30760603190F
:1000E800762877286B2877288031352820009601D4
:1000F800970198019101FF309200FF309300E7309B
:100108003E00CE00FF30C300B801E501C401B901CB
:10011800CF01BA01C501D001FF30BB00FF30C600D6
:10012800FF30D100BC01FF30C700FF30D2000830DB
:10013800E80013303D00C50014303E00A300153020
:10014800A40014303D00C6000800F2008031EB2006
:100158008031230091158031EB20803123000C0879
:10016800F1007108F3008031EB2080317208031927
:10017800BE28C12823009116C32823009112111606
:1001880073080800F100C03023008F0071358D001E
:10019800FF308E0026309000013091009201121637
:1001A8008C018B170B172E000F108F101914991430
:1001B8000800F1008031EB208031710823008C00A9
:1001C8002E000F1CE828E928E4280F100800230057
:1001D8000F19EF28F028EB2811081F39031DF528FF
:1001E800F628EB28080028302300900091018F178B
:1001F8000F1706308D00FF308E0008008131152161
:10020800813180317A20813181310C21813108009E
:10021800603031008D008F0191010230930092010E
:1002280008002F0096019701980199019A019B01F6
:1002380008008031EB20813123001115080080313E
:0A024800EB2081312300111408009F
:00000001FF
