:020000040000FA
:0400000080313528EE
:100008007E1480312E000F1C0A280B283328230069
:100018001012101B102811281528901F14281528B5
:100028001D280C08F0007008F90010139013101622
:1000380031288F1A2028212831280F1D2428252807
:1000480031280C08F0007008F9000F10DB308C0024
:1000580010160F18302831282D282E000F107E106A
:10006800090080313728F701F801F9017E102000D6
:1000780080313E2881311621803120008C01813168
:100088000B218031813137218031CE308031F12010
:100098008031BC308031F120803181313121803193
:1000A800813137218031CF308031F12080310130EA
:1000B8008031BD208031F4007408F700813131218E
:1000C80080315A307706031D6A286B288B28200058
:1000D8000C1581311621803177088031DA20803182
:1000E80020008C15F501F601230010120130F507E8
:1000F8000030F63D7608803AF4008F307402031D14
:100108008728A1307502031C8A288B2878288B2819
:100118008031352820009601970198019101FF3020
:100128009200FF309300E7303E00CE00FF30C3005E
:10013800B801E501C401B901CF01BA01C501D00177
:10014800FF30BB00FF30C600FF30D100BC01FF30DC
:10015800C700FF30D2000830E80013303D00C5006A
:1001680014303E00A3001530A40014303D00C60032
:100178000800F2008031FF20803123009115803182
:10018800FF20803123000C08F1007108F300803152
:10019800FF20803172080319D228D5282300911630
:1001A800D72823009112111673080800F100C030F7
:1001B80023008F0071358D00FF308E0026309000AF
:1001C80001309100920112168C018B170B172E002B
:1001D8000F108F10191499140800F1008031FF20B6
:1001E8008031710823008C002E000F1CFC28FD288C
:1001F800F8280F10080023000F1903290429FF28E5
:1002080011081F39031D09290A29FF280800283069
:100218002300900091018F170F1706308D00FF30D3
:100228008E00080081312921813180318E20813171
:100238008131202181310800603031008D008F012B
:10024800910102309300920108002F009601970156
:10025800980199019A019B0108008031FF208131A2
:100268002300111508008031FF208131230011146B
:0202780008007C
:00000001FF
