:020000040000FA
:0400000080313528EE
:100008007E1480312E000F1C0A280B283328230069
:100018001012101B102811281528901F14281528B5
:100028001D280C08F7007708F60010139013101617
:1000380031288F1A2028212831280F1D2428252807
:1000480031280C08F7007708F6000F10DB308C0019
:1000580010160F18302831282D282E000F107E106A
:10006800090080313728F001F101F201F301F401B0
:10007800F501F6017E1020008031422881311F21D0
:100088008031502874088031D6208031F201F20A7C
:10009800F301F30A20000C110230730603195528E6
:1000A80056284628720803195A285B2846288228A9
:1000B8008031EF208031813140218031CE30813153
:1000C80005218031BC3081310521803181313A21CF
:1000D8008031813140218031CF308131052180311B
:1000E80000308031B9208031FB007B08F400813179
:1000F8003A2180310230FB007B08F30073030319B7
:10010800862887285C2850288031352820009601C9
:10011800970198019101FF309200FF309300E7307A
:100128003E00CE00FF30C300B801E501C401B901AB
:10013800CF01BA01C501D001FF30BB00FF30C600B6
:10014800FF30D100BC01FF30C700FF30D2000830BB
:10015800E80013303D00C50014303E00A300153000
:10016800A40014303D00C6000800F90081311321B5
:1001780080312300911581311321803123000C082F
:10018800F8007808FA0081311321803179080319C1
:10019800CE28D12823009116D328230091121116B6
:1001A8007A080800F8008B170B172E000F108F1015
:1001B80019149914C03023008F0078358D00FF3052
:1001C8008E003630900001309100920112168C0199
:1001D80020000C1508008B130B132E000F148F141E
:1001E8001910991023009001283090009101920174
:1001F8008F018C018F170F1706308D00FF308E008E
:100208000800F800813113218131780823008C001F
:100218002E000F1C102911290C290F10080023008B
:100228000F1917291829132911081F39031D1D290A
:100238001E291329080081313221813180318A2019
:1002480081318131292181310800603031008D00F0
:100258008F01910102309300920108002F0096014E
:100268009701980199019A019B0108008131132196
:1002780081312300111508008131132181312300B8
:040288001114080045
:00000001FF
