:020000040000FA
:0400000080313528EE
:100008007E1480312E000F1C0A280B283328230069
:100018001012101B102811281528901F14281528B5
:100028001D280C08F0007008F70010139013101624
:1000380031288F1A2028212831280F1D2428252807
:1000480031280C08F0007008F7000F10DB308C0026
:1000580010160F18302831282D282E000F107E106A
:10006800090080313728F501F601F7017E102000DC
:1000780080313E288031E72080318031FE20803178
:100088008031F320803181311F218031CE308031A1
:10009800D9208031BC308031D9208031813119217B
:1000A800803181311F218031CF308031D92080319A
:1000B80000308031A5208031F4007408F5008131CA
:1000C800192180315A307506031D6B286C286F285A
:1000D80020000C168C1275088031C22080317328DC
:1000E8008031352820009601970198019101FF3051
:1000F8009200FF309300E7303E00CE00FF30C3008F
:10010800B801E501C401B901CF01BA01C501D001A7
:10011800FF30BB00FF30C600FF30D100BC01FF300C
:10012800C700FF30D2000830E80013303D00C5009A
:1001380014303E00A3001530A40014303D00C60062
:100148000800F2008031E7208031230091158031CA
:10015800E720803123000C08F1007108F30080319A
:10016800E720803172080319BA28BD2823009116A8
:10017800BF2823009112111673080800F100C0303F
:1001880023008F0071358D00FF308E0026309000DF
:1001980001309100920112168C018B170B172E005B
:1001A8000F108F10191499140800F1008031E720FE
:1001B8008031710823008C002E000F1CE428E528EC
:1001C800E0280F10080023000F19EB28EC28E72877
:1001D80011081F39031DF128F228E72808002830E4
:1001E8002300900091018F170F1706308D00FF3004
:1001F8008E000800813111218031803176208031D4
:100208008131082180310800603031008D008F0174
:10021800910102309300920108002F009601970186
:10022800980199019A019B0108008031E7208131EA
:100238002300111508008031E720813123001114B3
:020248000800AC
:00000001FF
