:020000040000FA
:0400000080313528EE
:100008007E1480312E000F1C0A280B283328230069
:100018001012101B102811281528901F14281528B5
:100028001D280C08F0007008F80010139013101623
:1000380031288F1A2028212831280F1D2428252807
:1000480031280C08F0007008F8000F10DB308C0025
:1000580010160F18302831282D282E000F107E106A
:10006800090080313728F501F601F701F8017E1003
:10007800200080313F2881310E218031672880316E
:10008800DE20803181312F218031CE308031F42043
:100098008031BC308031F420803181312921803198
:1000A80081312F218031CF308031F42080310030F0
:1000B8008031A8208031F4007408F60081312921AC
:1000C8008031F501F50A750803196B286C28432857
:1000D800712876088031C520803175030319752889
:1000E80076286D28762880313528200096019701DA
:1000F80098019101FF309200FF309300E7303E00F5
:10010800CE00FF30C300B801E501C401B901CF0139
:10011800BA01C501D001FF30BB00FF30C600FF3077
:10012800D100BC01FF30C700FF30D2000830E80022
:1001380013303D00C50014303E00A3001530A40064
:1001480014303D00C6000800F200813102218031E0
:100158002300911581310221803123000C08F10020
:100168007108F30081310221803172080319BD281A
:10017800C02823009116C228230091121116730873
:100188000800F1008B170B172E000F108F10191491
:100198009914C03023008F0071358D00FF308E0018
:1001A8003630900001309100920112168C01200027
:1001B8000C1508008B130B132E000F148F14191035
:1001C80099102300900128309000910192018F012D
:1001D8008C018F170F1706308D00FF308E00080036
:1001E800F100813102218031710823008C002E003A
:1001F8000F1CFF280029FB280F10080023000F19E7
:1002080006290729022911081F39031D0C290D2960
:100218000229080081312121813180317920813101
:100228008131182181310800603031008D008F0143
:10023800910102309300920108002F009601970166
:10024800980199019A019B010800813102218131AD
:100258002300111508008131022181312300111476
:0202680008008C
:00000001FF
