:020000040000FA
:0400000080313528EE
:100008007E1480312E000F1C0A280B283328230069
:100018001012101B102811281528901F14281528B5
:100028001D280C08F6007608F5001013901310161A
:1000380031288F1A2028212831280F1D2428252807
:1000480031280C08F6007608F5000F10DB308C001C
:1000580010160F18302831282D282E000F107E106A
:1000680009008031372881316A218031FB00F00195
:10007800F101F201F301F401F5017E102000803155
:1000880045288131432180317208031D4C284D28B1
:1000980074287B088031FA208031F001F101E730C3
:1000A8007006033003197106031D5B285C2862285B
:1000B800F201F20AF301F30A20000C140130F007F0
:1000C8000030F13D7108803AFA0083307A02031D4E
:1000D8006F28E9307002031C7228732853284828B7
:1000E80002307306031D79287A287F287B0880311F
:1000F800FA20803148287303031D83288428AB28FD
:10010800813113218031813164218031CE308131B8
:1001180029218031BC3081312921803181315E2112
:100128008031813164218031CF3081312921803182
:1001380000308031DD208031FA007A08FB008131FF
:100148005E2180310230FA007A08F30048284828F6
:100158008031352820009601970198019101FF30E0
:100168009200FF309300E7303E00CE00FF30C3001E
:10017800B801E501C401B901CF01BA01C501D00137
:10018800FF30BB00FF30C600FF30D100BC01FF309C
:10019800C700FF30D2000830E80013303D00C5002A
:1001A80014303E00A3001530A40014303D00C600F2
:1001B8000800F80081313721803123009115813101
:1001C8003721803123000C08F7007708F9008131C6
:1001D8003721803178080319F228F5282300911671
:1001E800F72823009112111679080800F7008B17D9
:1001F8000B172E000F108F1019149914C0302300FC
:100208008F0077358D00FF308E003630900001303A
:100218009100920112168C0120000C1508008B1316
:100228000B132E000F148F1419109910230090012E
:1002380028309000910192018F018C018F170F17C0
:1002480006308D00FF308E000800F700813137211D
:100258008131770823008C002E000F1C34293529A2
:1002680030290F10080023000F193B293C29372992
:1002780011081F39031D41294229372908008131F6
:10028800562181318031AE20813181314D2181313A
:100298000800603031008D008F0191010230930019
:1002A800920108002F0096019701980199019A017F
:1002B8009B01080081313721813123001115080085
:0E02C8008131372181312300111408000134E7
:00000001FF
